{
  "contractName": "CrudApp",
  "abi": [
    {
      "constant": true,
      "inputs": [
        {
          "name": "",
          "type": "uint256"
        }
      ],
      "name": "countries",
      "outputs": [
        {
          "name": "name",
          "type": "string"
        },
        {
          "name": "leader",
          "type": "string"
        },
        {
          "name": "population",
          "type": "uint256"
        }
      ],
      "payable": false,
      "stateMutability": "view",
      "type": "function"
    },
    {
      "constant": true,
      "inputs": [],
      "name": "totalCountries",
      "outputs": [
        {
          "name": "",
          "type": "uint256"
        }
      ],
      "payable": false,
      "stateMutability": "view",
      "type": "function"
    },
    {
      "inputs": [],
      "payable": false,
      "stateMutability": "nonpayable",
      "type": "constructor"
    },
    {
      "anonymous": false,
      "inputs": [
        {
          "indexed": false,
          "name": "countryName",
          "type": "string"
        },
        {
          "indexed": false,
          "name": "leader",
          "type": "string"
        },
        {
          "indexed": false,
          "name": "population",
          "type": "uint256"
        }
      ],
      "name": "CountryEvent",
      "type": "event"
    },
    {
      "anonymous": false,
      "inputs": [
        {
          "indexed": false,
          "name": "countryName",
          "type": "string"
        },
        {
          "indexed": false,
          "name": "leader",
          "type": "string"
        }
      ],
      "name": "LeaderUpdated",
      "type": "event"
    },
    {
      "anonymous": false,
      "inputs": [
        {
          "indexed": false,
          "name": "countryName",
          "type": "string"
        }
      ],
      "name": "CountryDelete",
      "type": "event"
    },
    {
      "constant": false,
      "inputs": [
        {
          "name": "countryName",
          "type": "string"
        },
        {
          "name": "leader",
          "type": "string"
        },
        {
          "name": "population",
          "type": "uint256"
        }
      ],
      "name": "doInsert",
      "outputs": [
        {
          "name": "total",
          "type": "uint256"
        }
      ],
      "payable": false,
      "stateMutability": "nonpayable",
      "type": "function"
    },
    {
      "constant": false,
      "inputs": [
        {
          "name": "countryName",
          "type": "string"
        },
        {
          "name": "newLeader",
          "type": "string"
        }
      ],
      "name": "doUpdateLeader",
      "outputs": [
        {
          "name": "success",
          "type": "bool"
        }
      ],
      "payable": false,
      "stateMutability": "nonpayable",
      "type": "function"
    },
    {
      "constant": false,
      "inputs": [
        {
          "name": "countryName",
          "type": "string"
        }
      ],
      "name": "doDeleteCountry",
      "outputs": [
        {
          "name": "success",
          "type": "bool"
        }
      ],
      "payable": false,
      "stateMutability": "nonpayable",
      "type": "function"
    },
    {
      "constant": true,
      "inputs": [
        {
          "name": "countryName",
          "type": "string"
        }
      ],
      "name": "getOneByCountryName",
      "outputs": [
        {
          "name": "name",
          "type": "string"
        },
        {
          "name": "leader",
          "type": "string"
        },
        {
          "name": "population",
          "type": "uint256"
        }
      ],
      "payable": false,
      "stateMutability": "view",
      "type": "function"
    },
    {
      "constant": true,
      "inputs": [],
      "name": "getTotalCountries",
      "outputs": [
        {
          "name": "length",
          "type": "uint256"
        }
      ],
      "payable": false,
      "stateMutability": "view",
      "type": "function"
    }
  ],
  "bytecode": "0x608060405234801561001057600080fd5b50600060018190555061142e806100286000396000f300608060405260043610610083576000357c0100000000000000000000000000000000000000000000000000000000900463ffffffff16806308e9daa51461008857806345f8e8c3146101a157806362738129146102f65780637d79a9f114610321578063acf75458146103e8578063bb3fc19014610413578063df3f8cb1146104e0575b600080fd5b34801561009457600080fd5b506100b360048036038101908080359060200190929190505050610561565b604051808060200180602001848152602001838103835286818151815260200191508051906020019080838360005b838110156100fd5780820151818401526020810190506100e2565b50505050905090810190601f16801561012a5780820380516001836020036101000a031916815260200191505b50838103825285818151815260200191508051906020019080838360005b83811015610163578082015181840152602081019050610148565b50505050905090810190601f1680156101905780820380516001836020036101000a031916815260200191505b509550505050505060405180910390f35b3480156101ad57600080fd5b50610208600480360381019080803590602001908201803590602001908080601f01602080910402602001604051908101604052809392919081815260200183838082843782019150505050505091929192905050506106ca565b604051808060200180602001848152602001838103835286818151815260200191508051906020019080838360005b83811015610252578082015181840152602081019050610237565b50505050905090810190601f16801561027f5780820380516001836020036101000a031916815260200191505b50838103825285818151815260200191508051906020019080838360005b838110156102b857808201518184015260208101905061029d565b50505050905090810190601f1680156102e55780820380516001836020036101000a031916815260200191505b509550505050505060405180910390f35b34801561030257600080fd5b5061030b6109cd565b6040518082815260200191505060405180910390f35b34801561032d57600080fd5b506103ce600480360381019080803590602001908201803590602001908080601f0160208091040260200160405190810160405280939291908181526020018383808284378201915050505050509192919290803590602001908201803590602001908080601f01602080910402602001604051908101604052809392919081815260200183838082843782019150505050505091929192905050506109d3565b604051808215151515815260200191505060405180910390f35b3480156103f457600080fd5b506103fd610c0c565b6040518082815260200191505060405180910390f35b34801561041f57600080fd5b506104ca600480360381019080803590602001908201803590602001908080601f0160208091040260200160405190810160405280939291908181526020018383808284378201915050505050509192919290803590602001908201803590602001908080601f016020809104026020016040519081016040528093929190818152602001838380828437820191505050505050919291929080359060200190929190505050610c18565b6040518082815260200191505060405180910390f35b3480156104ec57600080fd5b50610547600480360381019080803590602001908201803590602001908080601f0160208091040260200160405190810160405280939291908181526020018383808284378201915050505050509192919290505050610de3565b604051808215151515815260200191505060405180910390f35b60008181548110151561057057fe5b9060005260206000209060030201600091509050806000018054600181600116156101000203166002900480601f01602080910402602001604051908101604052809291908181526020018280546001816001161561010002031660029004801561061c5780601f106105f15761010080835404028352916020019161061c565b820191906000526020600020905b8154815290600101906020018083116105ff57829003601f168201915b505050505090806001018054600181600116156101000203166002900480601f0160208091040260200160405190810160405280929190818152602001828054600181600116156101000203166002900480156106ba5780601f1061068f576101008083540402835291602001916106ba565b820191906000526020600020905b81548152906001019060200180831161069d57829003601f168201915b5050505050908060020154905083565b606080600080600090505b600154811015610957576107a16000828154811015156106f157fe5b90600052602060002090600302016000018054600181600116156101000203166002900480601f0160208091040260200160405190810160405280929190818152602001828054600181600116156101000203166002900480156107965780601f1061076b57610100808354040283529160200191610796565b820191906000526020600020905b81548152906001019060200180831161077957829003601f168201915b50505050508661109a565b1561094a576000818154811015156107b557fe5b90600052602060002090600302016000016000828154811015156107d557fe5b90600052602060002090600302016001016000838154811015156107f557fe5b906000526020600020906003020160020154828054600181600116156101000203166002900480601f01602080910402602001604051908101604052809291908181526020018280546001816001161561010002031660029004801561089c5780601f106108715761010080835404028352916020019161089c565b820191906000526020600020905b81548152906001019060200180831161087f57829003601f168201915b50505050509250818054600181600116156101000203166002900480601f0160208091040260200160405190810160405280929190818152602001828054600181600116156101000203166002900480156109385780601f1061090d57610100808354040283529160200191610938565b820191906000526020600020905b81548152906001019060200180831161091b57829003601f168201915b505050505091509350935093506109c5565b80806001019150506106d5565b6040517f08c379a00000000000000000000000000000000000000000000000000000000081526004018080602001828103825260118152602001807f636f756e747279206e6f7420666f756e6400000000000000000000000000000081525060200191505060405180910390fd5b509193909250565b60015481565b600080600090505b600154811015610c0057610aa76000828154811015156109f757fe5b90600052602060002090600302016000018054600181600116156101000203166002900480601f016020809104026020016040519081016040528092919081815260200182805460018160011615610100020316600290048015610a9c5780601f10610a7157610100808354040283529160200191610a9c565b820191906000526020600020905b815481529060010190602001808311610a7f57829003601f168201915b50505050508561109a565b15610bf35782600082815481101515610abc57fe5b90600052602060002090600302016001019080519060200190610ae0929190611173565b507fdcbffcd2bd990a26d28efebebb6f9a7a35f2abf2f0e25720c56a457fce2211588484604051808060200180602001838103835285818151815260200191508051906020019080838360005b83811015610b48578082015181840152602081019050610b2d565b50505050905090810190601f168015610b755780820380516001836020036101000a031916815260200191505b50838103825284818151815260200191508051906020019080838360005b83811015610bae578082015181840152602081019050610b93565b50505050905090810190601f168015610bdb5780820380516001836020036101000a031916815260200191505b5094505050505060405180910390a160019150610c05565b80806001019150506109db565b600091505b5092915050565b60008080549050905090565b6000610c226111f3565b606060405190810160405280868152602001858152602001848152509050600081908060018154018082558091505090600182039060005260206000209060030201600090919290919091506000820151816000019080519060200190610c8a929190611215565b506020820151816001019080519060200190610ca7929190611215565b50604082015181600201555050506001600081548092919060010191905055507f0468dc69df7bee8f1d38fbb57d4c42ac20476b6d66c4477d41c677b7e2d63893858585604051808060200180602001848152602001838103835286818151815260200191508051906020019080838360005b83811015610d35578082015181840152602081019050610d1a565b50505050905090810190601f168015610d625780820380516001836020036101000a031916815260200191505b50838103825285818151815260200191508051906020019080838360005b83811015610d9b578082015181840152602081019050610d80565b50505050905090810190601f168015610dc85780820380516001836020036101000a031916815260200191505b509550505050505060405180910390a1819150509392505050565b6000806000600154111515610df757600080fd5b600090505b60015481101561108f57610ec8600082815481101515610e1857fe5b90600052602060002090600302016000018054600181600116156101000203166002900480601f016020809104026020016040519081016040528092919081815260200182805460018160011615610100020316600290048015610ebd5780601f10610e9257610100808354040283529160200191610ebd565b820191906000526020600020905b815481529060010190602001808311610ea057829003601f168201915b50505050508461109a565b156110825760006001805403815481101515610ee057fe5b9060005260206000209060030201600082815481101515610efd57fe5b906000526020600020906003020160008201816000019080546001816001161561010002031660029004610f32929190611295565b5060018201816001019080546001816001161561010002031660029004610f5a929190611295565b506002820154816002015590505060006001805403815481101515610f7b57fe5b906000526020600020906003020160008082016000610f9a919061131c565b600182016000610faa919061131c565b60028201600090555050600160008154809291906001900391905055506000805480919060019003610fdc9190611364565b507f1aae94a171c3e578099f7103bbb8a169533e0d22f84eb9807747a1c5bebbbc41836040518080602001828103825283818151815260200191508051906020019080838360005b8381101561103f578082015181840152602081019050611024565b50505050905090810190601f16801561106c5780820380516001836020036101000a031916815260200191505b509250505060405180910390a160019150611094565b8080600101915050610dfc565b600091505b50919050565b6000816040518082805190602001908083835b6020831015156110d257805182526020820191506020810190506020830392506110ad565b6001836020036101000a038019825116818451168082178552505050505050905001915050604051809103902060001916836040518082805190602001908083835b6020831015156111395780518252602082019150602081019050602083039250611114565b6001836020036101000a03801982511681845116808217855250505050505090500191505060405180910390206000191614905092915050565b828054600181600116156101000203166002900490600052602060002090601f016020900481019282601f106111b457805160ff19168380011785556111e2565b828001600101855582156111e2579182015b828111156111e15782518255916020019190600101906111c6565b5b5090506111ef9190611396565b5090565b6060604051908101604052806060815260200160608152602001600081525090565b828054600181600116156101000203166002900490600052602060002090601f016020900481019282601f1061125657805160ff1916838001178555611284565b82800160010185558215611284579182015b82811115611283578251825591602001919060010190611268565b5b5090506112919190611396565b5090565b828054600181600116156101000203166002900490600052602060002090601f016020900481019282601f106112ce578054855561130b565b8280016001018555821561130b57600052602060002091601f016020900482015b8281111561130a5782548255916001019190600101906112ef565b5b5090506113189190611396565b5090565b50805460018160011615610100020316600290046000825580601f106113425750611361565b601f0160209004906000526020600020908101906113609190611396565b5b50565b8154818355818111156113915760030281600302836000526020600020918201910161139091906113bb565b5b505050565b6113b891905b808211156113b457600081600090555060010161139c565b5090565b90565b6113ff91905b808211156113fb57600080820160006113da919061131c565b6001820160006113ea919061131c565b6002820160009055506003016113c1565b5090565b905600a165627a7a7230582015dca7e849675764494fed4552f850fb42af548c8ab8584947e626d18853f85c0029",
  "source": "pragma solidity ^0.4.23;\n\ncontract CrudApp {\n\n    struct country {\n        string name;\n        string leader;\n        uint256 population;\n    }\n\n    country[] public countries;\n\n    uint256 public totalCountries;\n\n\n    constructor() public {\n        totalCountries = 0;\n    }\n\n\n    event CountryEvent(string countryName, string leader, uint256 population);\n\n    event LeaderUpdated(string countryName, string leader);\n\n    event CountryDelete(string countryName);\n\n\n    function doInsert(string countryName, string leader, uint256 population) public returns (uint256 total){\n        country memory newCountry = country(countryName, leader, population);\n        countries.push(newCountry);\n        totalCountries++;\n        emit CountryEvent(countryName, leader, population);\n        return total;\n    }\n\n    function doUpdateLeader(string countryName, string newLeader) public returns (bool success){\n        for (uint256 i = 0; i < totalCountries; i++) {\n            if (compareStrings(countries[i].name, countryName)) {\n                countries[i].leader = newLeader;\n                emit LeaderUpdated(countryName, newLeader);\n                return true;\n            }\n        }\n        return false;\n    }\n\n    function doDeleteCountry(string countryName) public returns (bool success){\n        require(totalCountries > 0);\n        for (uint256 i = 0; i < totalCountries; i++) {\n            if (compareStrings(countries[i].name, countryName)) {\n                countries[i] = countries[totalCountries - 1];\n                delete countries[totalCountries - 1];\n                totalCountries--;\n                countries.length--;\n                emit CountryDelete(countryName);\n                return true;\n            }\n        }\n        return false;\n    }\n\n\n    function getOneByCountryName(string countryName) public view returns (string name, string leader, uint256 population){\n        for (uint256 i = 0; i < totalCountries; i++) {\n            if (compareStrings(countries[i].name, countryName)) {\n                return (countries[i].name, countries[i].leader, countries[i].population);\n            }\n        }\n        revert('country not found');\n    }\n\n    function compareStrings(string a, string b) internal pure returns (bool){\n        return keccak256(a) == keccak256(b);\n    }\n\n\n    function getTotalCountries() public view returns (uint256 length){\n        return countries.length;\n    }\n}\n",
  "sourcePath": "/Users/gwangbok/Projects/truffle/webpack_crud/contracts/CrudApp.sol",
  "compiler": {
    "name": "solc",
    "version": "0.4.24+commit.e67f0147.Emscripten.clang"
  },
  "schemaVersion": "2.0.1",
  "updatedAt": "2018-12-13T03:41:48.528Z"
}