{
  "contractName": "CrudApp",
  "abi": [
    {
      "constant": true,
      "inputs": [
        {
          "name": "",
          "type": "uint256"
        }
      ],
      "name": "countries",
      "outputs": [
        {
          "name": "name",
          "type": "string"
        },
        {
          "name": "leader",
          "type": "string"
        },
        {
          "name": "population",
          "type": "uint256"
        }
      ],
      "payable": false,
      "stateMutability": "view",
      "type": "function"
    },
    {
      "constant": true,
      "inputs": [],
      "name": "totalCountries",
      "outputs": [
        {
          "name": "",
          "type": "uint256"
        }
      ],
      "payable": false,
      "stateMutability": "view",
      "type": "function"
    },
    {
      "inputs": [],
      "payable": false,
      "stateMutability": "nonpayable",
      "type": "constructor"
    },
    {
      "anonymous": false,
      "inputs": [
        {
          "indexed": false,
          "name": "countryName",
          "type": "string"
        },
        {
          "indexed": false,
          "name": "leader",
          "type": "string"
        },
        {
          "indexed": false,
          "name": "population",
          "type": "uint256"
        }
      ],
      "name": "CountryEvent",
      "type": "event"
    },
    {
      "anonymous": false,
      "inputs": [
        {
          "indexed": false,
          "name": "countryName",
          "type": "string"
        },
        {
          "indexed": false,
          "name": "leader",
          "type": "string"
        }
      ],
      "name": "LeaderUpdated",
      "type": "event"
    },
    {
      "anonymous": false,
      "inputs": [
        {
          "indexed": false,
          "name": "countryName",
          "type": "string"
        }
      ],
      "name": "CountryDelete",
      "type": "event"
    },
    {
      "constant": false,
      "inputs": [
        {
          "name": "countryName",
          "type": "string"
        },
        {
          "name": "leader",
          "type": "string"
        },
        {
          "name": "population",
          "type": "uint256"
        }
      ],
      "name": "doInsert",
      "outputs": [
        {
          "name": "total",
          "type": "uint256"
        }
      ],
      "payable": false,
      "stateMutability": "nonpayable",
      "type": "function"
    },
    {
      "constant": false,
      "inputs": [
        {
          "name": "countryName",
          "type": "string"
        },
        {
          "name": "newLeader",
          "type": "string"
        }
      ],
      "name": "doUpdateLeader",
      "outputs": [
        {
          "name": "success",
          "type": "bool"
        }
      ],
      "payable": false,
      "stateMutability": "nonpayable",
      "type": "function"
    },
    {
      "constant": false,
      "inputs": [
        {
          "name": "countryName",
          "type": "string"
        }
      ],
      "name": "doDeleteCountry",
      "outputs": [
        {
          "name": "success",
          "type": "bool"
        }
      ],
      "payable": false,
      "stateMutability": "nonpayable",
      "type": "function"
    },
    {
      "constant": true,
      "inputs": [
        {
          "name": "countryName",
          "type": "string"
        }
      ],
      "name": "getOneByCountryName",
      "outputs": [
        {
          "name": "name",
          "type": "string"
        },
        {
          "name": "leader",
          "type": "string"
        },
        {
          "name": "population",
          "type": "uint256"
        }
      ],
      "payable": false,
      "stateMutability": "view",
      "type": "function"
    },
    {
      "constant": true,
      "inputs": [
        {
          "name": "id",
          "type": "uint256"
        }
      ],
      "name": "getOneById",
      "outputs": [
        {
          "name": "name",
          "type": "string"
        },
        {
          "name": "leader",
          "type": "string"
        },
        {
          "name": "population",
          "type": "uint256"
        }
      ],
      "payable": false,
      "stateMutability": "view",
      "type": "function"
    },
    {
      "constant": true,
      "inputs": [],
      "name": "getTotalCountries",
      "outputs": [
        {
          "name": "length",
          "type": "uint256"
        }
      ],
      "payable": false,
      "stateMutability": "view",
      "type": "function"
    }
  ],
  "bytecode": "0x608060405234801561001057600080fd5b506000600481905550611882806100286000396000f30060806040526004361061008e576000357c0100000000000000000000000000000000000000000000000000000000900463ffffffff16806308e9daa514610093578063343ad949146101ac57806345f8e8c3146102c5578063627381291461041a5780637d79a9f114610445578063acf754581461050c578063bb3fc19014610537578063df3f8cb114610604575b600080fd5b34801561009f57600080fd5b506100be60048036038101908080359060200190929190505050610685565b604051808060200180602001848152602001838103835286818151815260200191508051906020019080838360005b838110156101085780820151818401526020810190506100ed565b50505050905090810190601f1680156101355780820380516001836020036101000a031916815260200191505b50838103825285818151815260200191508051906020019080838360005b8381101561016e578082015181840152602081019050610153565b50505050905090810190601f16801561019b5780820380516001836020036101000a031916815260200191505b509550505050505060405180910390f35b3480156101b857600080fd5b506101d7600480360381019080803590602001909291905050506107ee565b604051808060200180602001848152602001838103835286818151815260200191508051906020019080838360005b83811015610221578082015181840152602081019050610206565b50505050905090810190601f16801561024e5780820380516001836020036101000a031916815260200191505b50838103825285818151815260200191508051906020019080838360005b8381101561028757808201518184015260208101905061026c565b50505050905090810190601f1680156102b45780820380516001836020036101000a031916815260200191505b509550505050505060405180910390f35b3480156102d157600080fd5b5061032c600480360381019080803590602001908201803590602001908080601f0160208091040260200160405190810160405280939291908181526020018383808284378201915050505050509192919290505050610999565b604051808060200180602001848152602001838103835286818151815260200191508051906020019080838360005b8381101561037657808201518184015260208101905061035b565b50505050905090810190601f1680156103a35780820380516001836020036101000a031916815260200191505b50838103825285818151815260200191508051906020019080838360005b838110156103dc5780820151818401526020810190506103c1565b50505050905090810190601f1680156104095780820380516001836020036101000a031916815260200191505b509550505050505060405180910390f35b34801561042657600080fd5b5061042f610c9c565b6040518082815260200191505060405180910390f35b34801561045157600080fd5b506104f2600480360381019080803590602001908201803590602001908080601f0160208091040260200160405190810160405280939291908181526020018383808284378201915050505050509192919290803590602001908201803590602001908080601f0160208091040260200160405190810160405280939291908181526020018383808284378201915050505050509192919290505050610ca2565b604051808215151515815260200191505060405180910390f35b34801561051857600080fd5b50610521610edb565b6040518082815260200191505060405180910390f35b34801561054357600080fd5b506105ee600480360381019080803590602001908201803590602001908080601f0160208091040260200160405190810160405280939291908181526020018383808284378201915050505050509192919290803590602001908201803590602001908080601f016020809104026020016040519081016040528093929190818152602001838380828437820191505050505050919291929080359060200190929190505050610ee8565b6040518082815260200191505060405180910390f35b34801561061057600080fd5b5061066b600480360381019080803590602001908201803590602001908080601f01602080910402602001604051908101604052809392919081815260200183838082843782019150505050505091929192905050506110b3565b604051808215151515815260200191505060405180910390f35b60038181548110151561069457fe5b9060005260206000209060030201600091509050806000018054600181600116156101000203166002900480601f0160208091040260200160405190810160405280929190818152602001828054600181600116156101000203166002900480156107405780601f1061071557610100808354040283529160200191610740565b820191906000526020600020905b81548152906001019060200180831161072357829003601f168201915b505050505090806001018054600181600116156101000203166002900480601f0160208091040260200160405190810160405280929190818152602001828054600181600116156101000203166002900480156107de5780601f106107b3576101008083540402835291602001916107de565b820191906000526020600020905b8154815290600101906020018083116107c157829003601f168201915b5050505050908060020154905083565b606080600060038481548110151561080257fe5b906000526020600020906003020160000160038581548110151561082257fe5b906000526020600020906003020160010160038681548110151561084257fe5b906000526020600020906003020160020154828054600181600116156101000203166002900480601f0160208091040260200160405190810160405280929190818152602001828054600181600116156101000203166002900480156108e95780601f106108be576101008083540402835291602001916108e9565b820191906000526020600020905b8154815290600101906020018083116108cc57829003601f168201915b50505050509250818054600181600116156101000203166002900480601f0160208091040260200160405190810160405280929190818152602001828054600181600116156101000203166002900480156109855780601f1061095a57610100808354040283529160200191610985565b820191906000526020600020905b81548152906001019060200180831161096857829003601f168201915b505050505091509250925092509193909250565b606080600080600090505b600454811015610c2657610a706003828154811015156109c057fe5b90600052602060002090600302016000018054600181600116156101000203166002900480601f016020809104026020016040519081016040528092919081815260200182805460018160011615610100020316600290048015610a655780601f10610a3a57610100808354040283529160200191610a65565b820191906000526020600020905b815481529060010190602001808311610a4857829003601f168201915b50505050508661136c565b15610c1957600381815481101515610a8457fe5b9060005260206000209060030201600001600382815481101515610aa457fe5b9060005260206000209060030201600101600383815481101515610ac457fe5b906000526020600020906003020160020154828054600181600116156101000203166002900480601f016020809104026020016040519081016040528092919081815260200182805460018160011615610100020316600290048015610b6b5780601f10610b4057610100808354040283529160200191610b6b565b820191906000526020600020905b815481529060010190602001808311610b4e57829003601f168201915b50505050509250818054600181600116156101000203166002900480601f016020809104026020016040519081016040528092919081815260200182805460018160011615610100020316600290048015610c075780601f10610bdc57610100808354040283529160200191610c07565b820191906000526020600020905b815481529060010190602001808311610bea57829003601f168201915b50505050509150935093509350610c94565b80806001019150506109a4565b6040517f08c379a00000000000000000000000000000000000000000000000000000000081526004018080602001828103825260118152602001807f636f756e747279206e6f7420666f756e6400000000000000000000000000000081525060200191505060405180910390fd5b509193909250565b60045481565b600080600090505b600454811015610ecf57610d76600382815481101515610cc657fe5b90600052602060002090600302016000018054600181600116156101000203166002900480601f016020809104026020016040519081016040528092919081815260200182805460018160011615610100020316600290048015610d6b5780601f10610d4057610100808354040283529160200191610d6b565b820191906000526020600020905b815481529060010190602001808311610d4e57829003601f168201915b50505050508561136c565b15610ec25782600382815481101515610d8b57fe5b90600052602060002090600302016001019080519060200190610daf9291906115c7565b507fdcbffcd2bd990a26d28efebebb6f9a7a35f2abf2f0e25720c56a457fce2211588484604051808060200180602001838103835285818151815260200191508051906020019080838360005b83811015610e17578082015181840152602081019050610dfc565b50505050905090810190601f168015610e445780820380516001836020036101000a031916815260200191505b50838103825284818151815260200191508051906020019080838360005b83811015610e7d578082015181840152602081019050610e62565b50505050905090810190601f168015610eaa5780820380516001836020036101000a031916815260200191505b5094505050505060405180910390a160019150610ed4565b8080600101915050610caa565b600091505b5092915050565b6000600380549050905090565b6000610ef2611647565b606060405190810160405280868152602001858152602001848152509050600381908060018154018082558091505090600182039060005260206000209060030201600090919290919091506000820151816000019080519060200190610f5a929190611669565b506020820151816001019080519060200190610f77929190611669565b50604082015181600201555050506004600081548092919060010191905055507f0468dc69df7bee8f1d38fbb57d4c42ac20476b6d66c4477d41c677b7e2d63893858585604051808060200180602001848152602001838103835286818151815260200191508051906020019080838360005b83811015611005578082015181840152602081019050610fea565b50505050905090810190601f1680156110325780820380516001836020036101000a031916815260200191505b50838103825285818151815260200191508051906020019080838360005b8381101561106b578082015181840152602081019050611050565b50505050905090810190601f1680156110985780820380516001836020036101000a031916815260200191505b509550505050505060405180910390a1819150509392505050565b60008060006004541115156110c757600080fd5b600090505b600454811015611361576111986003828154811015156110e857fe5b90600052602060002090600302016000018054600181600116156101000203166002900480601f01602080910402602001604051908101604052809291908181526020018280546001816001161561010002031660029004801561118d5780601f106111625761010080835404028352916020019161118d565b820191906000526020600020905b81548152906001019060200180831161117057829003601f168201915b50505050508461136c565b156113545760036001600454038154811015156111b157fe5b90600052602060002090600302016003828154811015156111ce57fe5b9060005260206000209060030201600082018160000190805460018160011615610100020316600290046112039291906116e9565b506001820181600101908054600181600116156101000203166002900461122b9291906116e9565b5060028201548160020155905050600360016004540381548110151561124d57fe5b90600052602060002090600302016000808201600061126c9190611770565b60018201600061127c9190611770565b600282016000905550506004600081548092919060019003919050555060038054809190600190036112ae91906117b8565b507f1aae94a171c3e578099f7103bbb8a169533e0d22f84eb9807747a1c5bebbbc41836040518080602001828103825283818151815260200191508051906020019080838360005b838110156113115780820151818401526020810190506112f6565b50505050905090810190601f16801561133e5780820380516001836020036101000a031916815260200191505b509250505060405180910390a160019150611366565b80806001019150506110cc565b600091505b50919050565b600082826040516020018083805190602001908083835b6020831015156113a85780518252602082019150602081019050602083039250611383565b6001836020036101000a03801982511681845116808217855250505050505090500182805190602001908083835b6020831015156113fb57805182526020820191506020810190506020830392506113d6565b6001836020036101000a038019825116818451168082178552505050505050905001925050506040516020818303038152906040526040518082805190602001908083835b6020831015156114655780518252602082019150602081019050602083039250611440565b6001836020036101000a03801982511681845116808217855250505050505090500191505060405180910390206000191683836040516020018083805190602001908083835b6020831015156114d057805182526020820191506020810190506020830392506114ab565b6001836020036101000a03801982511681845116808217855250505050505090500182805190602001908083835b60208310151561152357805182526020820191506020810190506020830392506114fe565b6001836020036101000a038019825116818451168082178552505050505050905001925050506040516020818303038152906040526040518082805190602001908083835b60208310151561158d5780518252602082019150602081019050602083039250611568565b6001836020036101000a03801982511681845116808217855250505050505090500191505060405180910390206000191614905092915050565b828054600181600116156101000203166002900490600052602060002090601f016020900481019282601f1061160857805160ff1916838001178555611636565b82800160010185558215611636579182015b8281111561163557825182559160200191906001019061161a565b5b50905061164391906117ea565b5090565b6060604051908101604052806060815260200160608152602001600081525090565b828054600181600116156101000203166002900490600052602060002090601f016020900481019282601f106116aa57805160ff19168380011785556116d8565b828001600101855582156116d8579182015b828111156116d75782518255916020019190600101906116bc565b5b5090506116e591906117ea565b5090565b828054600181600116156101000203166002900490600052602060002090601f016020900481019282601f10611722578054855561175f565b8280016001018555821561175f57600052602060002091601f016020900482015b8281111561175e578254825591600101919060010190611743565b5b50905061176c91906117ea565b5090565b50805460018160011615610100020316600290046000825580601f1061179657506117b5565b601f0160209004906000526020600020908101906117b491906117ea565b5b50565b8154818355818111156117e5576003028160030283600052602060002091820191016117e4919061180f565b5b505050565b61180c91905b808211156118085760008160009055506001016117f0565b5090565b90565b61185391905b8082111561184f576000808201600061182e9190611770565b60018201600061183e9190611770565b600282016000905550600301611815565b5090565b905600a165627a7a723058204b668701b60bd861c1d814df52f8fa9da7eece060b13f01cde7f278b3b8146cd0029",
  "source": "pragma solidity >=0.4.21 <0.7.0;\n\n\ncontract CrudApp {\n\n    struct country {\n        string name;\n        string leader;\n        uint256 population;\n    }\n\n    uint256 _unixTimestamp;\n    uint256 _timeExpired;\n\n    uint[] xs;\n\n    country[] public countries;\n\n    uint256 public totalCountries;\n\n    constructor() public {\n        totalCountries = 0;\n    }\n\n    event CountryEvent(string countryName, string leader, uint256 population);\n    event LeaderUpdated(string countryName, string leader);\n    event CountryDelete(string countryName);\n\n\n    function doInsert(string countryName, string leader, uint256 population) public returns (uint256 total){\n        country memory newCountry = country(countryName, leader, population);\n        countries.push(newCountry);\n        totalCountries++;\n\n        emit CountryEvent(countryName, leader, population);\n        return total;\n    }\n\n    function doUpdateLeader(string countryName, string newLeader) public returns (bool success){\n        for (uint256 i = 0; i < totalCountries; i++) {\n            if (compareStrings(countries[i].name, countryName)) {\n                countries[i].leader = newLeader;\n                emit LeaderUpdated(countryName, newLeader);\n                return true;\n            }\n        }\n        return false;\n    }\n\n    function doDeleteCountry(string countryName) public returns (bool success){\n        require(totalCountries > 0);\n        for (uint256 i = 0; i < totalCountries; i++) {\n            if (compareStrings(countries[i].name, countryName)) {\n                countries[i] = countries[totalCountries - 1];\n                delete countries[totalCountries - 1];\n                totalCountries--;\n                countries.length--;\n                emit CountryDelete(countryName);\n                return true;\n            }\n        }\n        return false;\n    }\n\n\n    function getOneByCountryName(string countryName) public view returns (string name, string leader, uint256 population){\n        for (uint256 i = 0; i < totalCountries; i++) {\n            if (compareStrings(countries[i].name, countryName)) {\n                return (countries[i].name, countries[i].leader, countries[i].population);\n            }\n        }\n        revert('country not found');\n    }\n\n    function getOneById(uint id) public view returns (string name, string leader, uint256 population){\n        return (countries[id].name, countries[id].leader, countries[id].population);\n\n    }\n\n\n    function compareStrings(string a, string b) internal pure returns (bool){\n        return keccak256(abi.encodePacked(a,b)) == keccak256(abi.encodePacked(a,b));\n    }\n\n\n    function getTotalCountries() public view returns (uint256 length){\n        return countries.length;\n    }\n\n\n//    function getMany() public view returns (uint[]) {\n//        for (uint256 i = 0; i < totalCountries; i++) {\n//            xs.push(i);\n//        }\n//\n//        return xs;\n//    }\n\n}\n",
  "sourcePath": "/Users/jampick/ProjectTest/dapp_truffle_crud/contracts/CrudApp.sol",
  "compiler": {
    "name": "solc",
    "version": "0.4.26+commit.4563c3fc.Emscripten.clang"
  },
  "schemaVersion": "2.0.3",
  "updatedAt": "2020-02-27T14:06:35.287Z"
}